:040000007DEF3FF061
:107EFA000001A9EF3FF0000E026E000E016E000EA7
:107F0A00046E000E036E034A042A04BE96EF3FF085
:107F1A00045009E1640E035CD8A096EF3FF098EF95
:107F2A003FF088EF3FF0014A022A02BEA6EF3FF077
:107F3A00025009E1640E015CD8A0A6EF3FF0A8EF59
:107F4A003FF084EF3FF01200000E936E000E096EB0
:107F5A00000E086E09BEBBEF3FF0095009E1080E9A
:107F6A00085CD8A0BBEF3FF0BDEF3FF0BFEF3FF09A
:107F7A00D6EF3FF008C005F0800E066E000E076EC1
:107F8A00052ACBEF3FF0073407320632052EC8EF39
:107F9A003FF00650816E80EC3FF0084A092AAFEFA5
:107FAA003FF0000E0B6E000E0A6E0BBEE6EF3FF0BE
:107FBA000B5009E1080E0A5CD8A0E6EF3FF0E8EFA3
:107FCA003FF0EAEF3FF0ABEF3FF00AC005F0010ED9
:107FDA00066E052AF3EF3FF0D8900636052EF1EF2C
:107FEA003FF00650816E80EC3FF00A4A0B2ADAEF26
:067FFA003FF000EF00F073
:020000040020DA
:08000000FFFFFFFFFFFFFFFF00
:020000040030CA
:0E000000FF071F1FFF8285FF0FC00FE00F409C
:00000001FF
